:060000000C943B010C947E
:1000060000000C9400000C9400000C9400000C946A
:1000160000000C9400000C9400000C9400000C945A
:1000260000000C9400000C9400000C9400000C944A
:1000360000000C9400000C9400000C9400000C943A
:1000460000000C9400000C9400000C94000080400A
:100056002010080402010000000000000303FFFF57
:100066000303F8FC0707FCF800384482018C9E92D3
:1000760092F26000FEFE081C366282C66C381C0EC8
:10008600060008080800FFFF00F8242224F800FAFA
:1000960000FC080600FB01FB876B6BA7FF01FFFF57
:1000A60000080800FF81ADADD3FF81FFC3BDADCB16
:1000B600FF0002027E0202001E2040201E000808E9
:1000C6000800F8FC0707FCF82141454B31001814DD
:1000D600127F10002745454539003C4A4949300002
:1000E600017109050300364949493600064949297F
:1000F6001E000036360000000056360000000814C8
:1001060022410000141414141400004122140800A3
:10011600020151090600324959513E007E11111162
:100126007E007F49494936003E41414122007F41D8
:1001360041221C007F49494941007F090909010004
:100146003E4149497A007F0808087F0000417F4107
:1001560000002040413F01007F08142241007F40FB
:10016600404040007F020C027F007F0408107F00A1
:100176003E4141413E007F09090906003E415121A9
:100186005E007F09192946004649494931000101A7
:100196007F0101003F4040403F001F2040201F00DC
:1001A6003F4038403F006314081463000708700896
:1001B6000700615149454300007F41410000552A2F
:1001C600552A55000041417F00007F7F4949410083
:1001D60040404040400000010204000020545454B6
:1001E60078007F484444380038444444200038446A
:1001F60044487F00385454541800087E0901020010
:100206000C5252523E007F080404780000447D40A0
:1002160000002040443D00007F10284400000041BB
:100226007F4000007C04180478007C0804047800F1
:100236003844444438007C14141408000814141874
:100246007C007C0804040800485454542000043FF1
:10025600444020004D616E6F6A20522E2054686122
:100266006B757220200080C002007E016C020000C7
:10027600F894EE27ECBBF1E0FBBFEBBFE5BF8DE0EA
:10028600A2E0BB27ED938A95E9F780E094E0A0E62B
:10029600ED930197E9F7EEE6F2E0859195910097E7
:1002A60061F0A591B59105901590BF01F0010590FB
:1002B6000D920197E1F7FB01F0CFEFE5EDBFE4E02A
:1002C600EEBFC0E6D1E00C94680155244424EFEF5C
:1002D600E1BBE7BBE1EFE2BFE5E0E3BFE1E0E9BF99
:1002E600E0E8EFBFE0E0E8BBEFEFE2BB2697E0E037
:1002F600E883E983EA83EB83AA81BB811897ACF58F
:10030600E0E0E883E983EA81FB81EC83FD83EA810F
:10031600FB813596AC81BD81AE17BF07FCF4EC813D
:10032600FD81A7E0B0E00E94D901EC5AFF4F04908E
:1003360008BAEAE7F0E0A881B981EA0FFB1FE49169
:10034600E095E2BB21D0E881F9813196E883F98313
:10035600EC81FD813196EC83FD83D9CF09D0EA810A
:10036600FB813196EA83FB83C7CF2696BFCFFFCFAB
:100376001A930A9300E010E00031E7E21E071CF42E
:100386000F5F1F4FF9CF0BC01A930A9301E010E0DD
:10039600003AE0E01E071CF40F5F1F4FF9CF0991EA
:1003A60019910895F195E195F0400895E894F7FFC5
:1003B60002C0F8DF6894EA23FB230EF4F3DF089506
:00000001FF
