:040000000C94350027
:100004000C9400000C9400000C9400000C9400006C
:100014000C9400000C9400000C9400000C9400005C
:100024000C9400000C9400000C9400000C9400004C
:100034000C9400000C9400000C9400000C9400003C
:100044000C9400000C9400000C9400000C9400002C
:1000540068656C6C6F0080C006006001540002008B
:1000640066015A000000F894EE27ECBBF1E0FBBFF8
:10007400EBBFE5BF8DE0A2E0BB27ED938A95E9F7DE
:1000840080E094E0A0E6ED930197E9F7ECE5F0E079
:1000940085919591009761F0A591B5910590159082
:1000A400BF01F00105900D920197E1F7FB01F0CF3C
:1000B400EFE5EDBFE4E0EEBFC0E6D1E00C946200F2
:1000C400E0E0EABBEBBBE8E0E7BBE0E0E8BBE4BBB5
:1000D400E5BBE1BBE2BBE9E1E3BFE0E0E2BFECBFCB
:1000E400EFBDEEBDEDBDECBDE7BDE6BDEBBDEABDCC
:1000F400E9BDE8BDE9BFE5BFE4BFEAB9E0E8E8B9B6
:10010400E0E0E0BFE6B9EDB9E6BFA4E188D024970A
:10011400E0E0E883E983EA83EB83A4E180D0EA8129
:10012400EA93A9813FD0A0E6B1E068D0EA81FB81DF
:100134003196EA83FB83AA81BB81549744F0E0E0C3
:10014400EA83EB83E881F9813196E883F983A88116
:10015400B98114972CF0E0E0E883E983EA83EB8328
:10016400DCCFFFCFAA93EBB3EF70AE2FE881E07F33
:10017400EA2BEBBB8DE08A95F1F7DA9A8DE08A954C
:10018400F1F7DA988DE08A95F1F772C0AA93A88105
:10019400E9DFE881E295E883A881E4DF85E88A95D0
:1001A400F1F766C0AA93E881F0E0EA59FE4FE081D6
:1001B400A981AE0FEBDF5980488022960895A2E012
:1001C40059D0ACE0E3DFA1E055D0E0E04E2E5E2E46
:1001D4000895AA93A881AA3011F0571448F0E0E0DA
:1001E400EA934394A42DDEDFA881AA3009F440C029
:1001F4005394D89AA881CADFD8983AC0BA93AA93DC
:100204001A93A981BA81ED91A983BA831E2FE03094
:1002140019F0A12FDEDFF5CF188123960895AA9354
:10022400EAB3E06FEABBD29AD09AD19ADA98D89816
:10023400D9987880E881E058E0936801E881E05437
:10024400E0936901A4E1B0E00E94480118D017D0FE
:1002540016D0A0E287DF88EC90E00197F1F7A8E2DE
:1002640095DFA4E093DFA5E891DFA6E08FDFA7DFA9
:10027400219608958BDFA3E0B0E00C944801A0E33D
:1002840071DF88EC90E00197F1F70895109639F04A
:1002940080ED97E00197F1F7A8951197C9F70895B4
:00000001FF
